{
  "contractName": "PersonBox",
  "abi": [
    {
      "inputs": [],
      "payable": false,
      "stateMutability": "nonpayable",
      "type": "constructor"
    },
    {
      "anonymous": false,
      "inputs": [
        {
          "indexed": false,
          "internalType": "address[]",
          "name": "list",
          "type": "address[]"
        }
      ],
      "name": "evt_getRecords",
      "type": "event"
    },
    {
      "constant": false,
      "inputs": [
        {
          "internalType": "address",
          "name": "_address",
          "type": "address"
        }
      ],
      "name": "append",
      "outputs": [],
      "payable": false,
      "stateMutability": "nonpayable",
      "type": "function"
    },
    {
      "constant": false,
      "inputs": [],
      "name": "getRecords",
      "outputs": [],
      "payable": false,
      "stateMutability": "nonpayable",
      "type": "function"
    }
  ],
  "bytecode": "0x608060405234801561001057600080fd5b50336000806101000a81548173ffffffffffffffffffffffffffffffffffffffff021916908373ffffffffffffffffffffffffffffffffffffffff1602179055506101d5806100606000396000f3fe608060405234801561001057600080fd5b50600436106100365760003560e01c80638eff3c291461003b578063ac04f5a714610045575b600080fd5b610043610089565b005b6100876004803603602081101561005b57600080fd5b81019080803573ffffffffffffffffffffffffffffffffffffffff169060200190929190505050610137565b005b7f1fbedaa9e66eb2f15d0f065e91f47a5fe9f9aedafd17e8478612812117fb5e3560016040518080602001828103825283818154815260200191508054801561012757602002820191906000526020600020905b8160009054906101000a900473ffffffffffffffffffffffffffffffffffffffff1673ffffffffffffffffffffffffffffffffffffffff16815260200190600101908083116100dd575b50509250505060405180910390a1565b60018190806001815401808255809150509060018203906000526020600020016000909192909190916101000a81548173ffffffffffffffffffffffffffffffffffffffff021916908373ffffffffffffffffffffffffffffffffffffffff160217905550505056fea265627a7a72315820017e923bb60d873acacd8ed90711f18b5bf79e278f5cdb1f339930b46c8d7d0c64736f6c63430005100032",
  "source": "pragma solidity >=0.4.21 <0.7.0;\n\ncontract PersonBox{\n    address payable owner;\n    address[] keyList;\n    event evt_getRecords(address[] list);\n\n    constructor() public{\n        owner = msg.sender;\n    }\n\n    function append(address _address) public{\n        keyList.push(_address);\n    }\n\n    function getRecords() public{\n        emit evt_getRecords(keyList);\n    }\n}",
  "sourcePath": "/home/labpc4/Downloads/blockchain_proj/record_rental_car/contracts/PersonBox.sol",
  "compiler": {
    "name": "solc",
    "version": "0.5.16+commit.9c3226ce.Emscripten.clang"
  },
  "schemaVersion": "3.1.0",
  "updatedAt": "2020-05-28T11:54:11.268Z",
  "networkType": "ethereum",
  "devdoc": {
    "methods": {}
  },
  "userdoc": {
    "methods": {}
  }
}