{
  "contractName": "Record",
  "abi": [
    {
      "anonymous": false,
      "inputs": [
        {
          "indexed": false,
          "internalType": "address payable",
          "name": "OWNER",
          "type": "address"
        },
        {
          "indexed": false,
          "internalType": "string",
          "name": "IPFSADDRESS",
          "type": "string"
        },
        {
          "indexed": false,
          "internalType": "string",
          "name": "DATETIME",
          "type": "string"
        },
        {
          "indexed": false,
          "internalType": "string",
          "name": "GPSLOCATION",
          "type": "string"
        }
      ],
      "name": "evt_get",
      "type": "event"
    },
    {
      "constant": false,
      "inputs": [
        {
          "internalType": "string",
          "name": "_ipfsAdd",
          "type": "string"
        },
        {
          "internalType": "string",
          "name": "_dateTime",
          "type": "string"
        },
        {
          "internalType": "string",
          "name": "_gpsLoc",
          "type": "string"
        }
      ],
      "name": "set",
      "outputs": [],
      "payable": false,
      "stateMutability": "nonpayable",
      "type": "function"
    },
    {
      "constant": false,
      "inputs": [],
      "name": "get",
      "outputs": [],
      "payable": false,
      "stateMutability": "nonpayable",
      "type": "function"
    }
  ],
  "bytecode": "0x608060405234801561001057600080fd5b506105b9806100206000396000f3fe608060405234801561001057600080fd5b50600436106100365760003560e01c80636d4ce63c1461003b578063da465d7414610045575b600080fd5b61004361022e565b005b61022c6004803603606081101561005b57600080fd5b810190808035906020019064010000000081111561007857600080fd5b82018360208201111561008a57600080fd5b803590602001918460018302840111640100000000831117156100ac57600080fd5b91908080601f016020809104026020016040519081016040528093929190818152602001838380828437600081840152601f19601f8201169050808301925050505050505091929192908035906020019064010000000081111561010f57600080fd5b82018360208201111561012157600080fd5b8035906020019184600183028401116401000000008311171561014357600080fd5b91908080601f016020809104026020016040519081016040528093929190818152602001838380828437600081840152601f19601f820116905080830192505050505050509192919290803590602001906401000000008111156101a657600080fd5b8201836020820111156101b857600080fd5b803590602001918460018302840111640100000000831117156101da57600080fd5b91908080601f016020809104026020016040519081016040528093929190818152602001838380828437600081840152601f19601f820116905080830192505050505050509192919290505050610455565b005b7f0a1a0fbf6b341468c328d69025589dbe28737af513df4eb3be7bb09719fb96536000809054906101000a900473ffffffffffffffffffffffffffffffffffffffff16600160026003604051808573ffffffffffffffffffffffffffffffffffffffff1673ffffffffffffffffffffffffffffffffffffffff16815260200180602001806020018060200184810384528781815460018160011615610100020316600290048152602001915080546001816001161561010002031660029004801561033a5780601f1061030f5761010080835404028352916020019161033a565b820191906000526020600020905b81548152906001019060200180831161031d57829003601f168201915b50508481038352868181546001816001161561010002031660029004815260200191508054600181600116156101000203166002900480156103bd5780601f10610392576101008083540402835291602001916103bd565b820191906000526020600020905b8154815290600101906020018083116103a057829003601f168201915b50508481038252858181546001816001161561010002031660029004815260200191508054600181600116156101000203166002900480156104405780601f1061041557610100808354040283529160200191610440565b820191906000526020600020905b81548152906001019060200180831161042357829003601f168201915b505097505050505050505060405180910390a1565b336000806101000a81548173ffffffffffffffffffffffffffffffffffffffff021916908373ffffffffffffffffffffffffffffffffffffffff16021790555082600190805190602001906104ab9291906104df565b5081600290805190602001906104c29291906104df565b5080600390805190602001906104d99291906104df565b50505050565b828054600181600116156101000203166002900490600052602060002090601f016020900481019282601f1061052057805160ff191683800117855561054e565b8280016001018555821561054e579182015b8281111561054d578251825591602001919060010190610532565b5b50905061055b919061055f565b5090565b61058191905b8082111561057d576000816000905550600101610565565b5090565b9056fea265627a7a7231582041c1e00b3df3a49baae05b146a5f1fcfb4d847e1a69c0375ba5ac3d83b0825d964736f6c63430005100032",
  "source": "pragma solidity >=0.4.21 <0.7.0;\n\ncontract Record {\n    address payable owner;\n    string ipfsAddress;\n    string dateTime;\n    string gpsLocation;\n\n    event evt_get(address payable OWNER, string IPFSADDRESS, string DATETIME, string GPSLOCATION);\n\n    function set(string memory _ipfsAdd,\n                 string memory _dateTime, string memory _gpsLoc) public{\n        owner = msg.sender;\n        ipfsAddress = _ipfsAdd;\n        dateTime = _dateTime;\n        gpsLocation = _gpsLoc;\n    }\n\n    function get() public{\n        emit evt_get(owner,ipfsAddress,dateTime,gpsLocation);\n    }\n}",
  "sourcePath": "/home/labpc4/Downloads/blockchain_proj/record_rental_car/contracts/Record.sol",
  "compiler": {
    "name": "solc",
    "version": "0.5.16+commit.9c3226ce.Emscripten.clang"
  },
  "schemaVersion": "3.1.0",
  "updatedAt": "2020-06-20T11:41:56.727Z",
  "networkType": "ethereum",
  "devdoc": {
    "methods": {}
  },
  "userdoc": {
    "methods": {}
  }
}