{
  "contractName": "Record",
  "abi": [
    {
      "anonymous": false,
      "inputs": [
        {
          "indexed": false,
          "internalType": "address payable",
          "name": "OWNER",
          "type": "address"
        },
        {
          "indexed": false,
          "internalType": "string",
          "name": "IPFSADDRESS",
          "type": "string"
        },
        {
          "indexed": false,
          "internalType": "uint32",
          "name": "DATETIME",
          "type": "uint32"
        },
        {
          "indexed": false,
          "internalType": "string",
          "name": "GPSLOCATION",
          "type": "string"
        }
      ],
      "name": "evt_get",
      "type": "event"
    },
    {
      "constant": false,
      "inputs": [
        {
          "internalType": "string",
          "name": "_ipfsAdd",
          "type": "string"
        },
        {
          "internalType": "uint32",
          "name": "_dateTime",
          "type": "uint32"
        },
        {
          "internalType": "string",
          "name": "_gpsLoc",
          "type": "string"
        }
      ],
      "name": "set",
      "outputs": [],
      "payable": false,
      "stateMutability": "nonpayable",
      "type": "function"
    },
    {
      "constant": false,
      "inputs": [],
      "name": "get",
      "outputs": [],
      "payable": false,
      "stateMutability": "nonpayable",
      "type": "function"
    }
  ],
  "bytecode": "0x608060405234801561001057600080fd5b506104d7806100206000396000f3fe608060405234801561001057600080fd5b50600436106100365760003560e01c806368feed2b1461003b5780636d4ce63c1461019d575b600080fd5b61019b6004803603606081101561005157600080fd5b810190808035906020019064010000000081111561006e57600080fd5b82018360208201111561008057600080fd5b803590602001918460018302840111640100000000831117156100a257600080fd5b91908080601f016020809104026020016040519081016040528093929190818152602001838380828437600081840152601f19601f820116905080830192505050505050509192919290803563ffffffff1690602001909291908035906020019064010000000081111561011557600080fd5b82018360208201111561012757600080fd5b8035906020019184600183028401116401000000008311171561014957600080fd5b91908080601f016020809104026020016040519081016040528093929190818152602001838380828437600081840152601f19601f8201169050808301925050505050505091929192905050506101a7565b005b6101a561023b565b005b336000806101000a81548173ffffffffffffffffffffffffffffffffffffffff021916908373ffffffffffffffffffffffffffffffffffffffff16021790555082600190805190602001906101fd9291906103fd565b5081600260006101000a81548163ffffffff021916908363ffffffff16021790555080600390805190602001906102359291906103fd565b50505050565b7f31da476eb5a98760a8a90f18592aa41c04fad3d73a48a6b260a31e1f0e23981f6000809054906101000a900473ffffffffffffffffffffffffffffffffffffffff166001600260009054906101000a900463ffffffff166003604051808573ffffffffffffffffffffffffffffffffffffffff1673ffffffffffffffffffffffffffffffffffffffff168152602001806020018463ffffffff1663ffffffff168152602001806020018381038352868181546001816001161561010002031660029004815260200191508054600181600116156101000203166002900480156103665780601f1061033b57610100808354040283529160200191610366565b820191906000526020600020905b81548152906001019060200180831161034957829003601f168201915b50508381038252848181546001816001161561010002031660029004815260200191508054600181600116156101000203166002900480156103e95780601f106103be576101008083540402835291602001916103e9565b820191906000526020600020905b8154815290600101906020018083116103cc57829003601f168201915b5050965050505050505060405180910390a1565b828054600181600116156101000203166002900490600052602060002090601f016020900481019282601f1061043e57805160ff191683800117855561046c565b8280016001018555821561046c579182015b8281111561046b578251825591602001919060010190610450565b5b509050610479919061047d565b5090565b61049f91905b8082111561049b576000816000905550600101610483565b5090565b9056fea265627a7a7231582033a259ac153b2ef0c10e32b372f99dc45b79ae18e7b601a86986a06ff273bf2064736f6c63430005100032",
  "source": "pragma solidity >=0.4.21 <0.7.0;\n\ncontract Record {\n    address payable owner;\n    string ipfsAddress;\n    uint32 dateTime;\n    string gpsLocation;\n\n    event evt_get(address payable OWNER, string IPFSADDRESS, uint32 DATETIME, string GPSLOCATION);\n\n    function set(string memory _ipfsAdd,\n                 uint32 _dateTime, string memory _gpsLoc) public{\n        owner = msg.sender;\n        ipfsAddress = _ipfsAdd;\n        dateTime = _dateTime;\n        gpsLocation = _gpsLoc;\n    }\n\n    function get() public{\n        emit evt_get(owner,ipfsAddress,dateTime,gpsLocation);\n    }\n}",
  "sourcePath": "/home/labpc4/Downloads/blockchain_proj/record_rental_car/contracts/Record.sol",
  "compiler": {
    "name": "solc",
    "version": "0.5.16+commit.9c3226ce.Emscripten.clang"
  },
  "schemaVersion": "3.1.0",
  "updatedAt": "2020-06-04T03:33:45.523Z",
  "networkType": "ethereum",
  "devdoc": {
    "methods": {}
  },
  "userdoc": {
    "methods": {}
  }
}